:020000040800F2
:10000000400F002091650008096500080B65000895
:100010000D6500080F65000811650008000000006C
:100020000000000000000000000000001365000850
:10003000156500080000000017650008AB360008D1
:10004000B5650008B9650008BD650008C165000810
:10005000C5650008C9650008CD650008D1650008C0
:10006000D5650008D965000819650008DD65000838
:10007000E1650008E5650008E9650008ED65000830
:10008000F1650008F5650008F9650008FD650008E0
:100090000166000805660008096600080D6600088C
:1000A0001166000815660008196600081D6600083C
:1000B0002166000825660008296600082D660008EC
:1000C0003166000835660008396600083D6600089C
:1000D0004166000845660008496600084D6600084C
:1000E0001F6500080D3900085166000855660008B4
:1000F000596600085D6600086166000865660008CC
:10010000696600086D66000871660008756600087B
:10011000796600087D66000881660008856600082B
:10012000896600088D6600089166000895660008DB
:10013000996600089D660008A1660008A56600088B
:10014000A9660008AD660008B1660008B56600083B
:10015000B9660008BD660008C1660008C5660008EB
:10016000C9660008CD660008D1660008D56600089B
:10017000D9660008DD660008E1660008000000009E
:10018000E5660008E96600082DE9F04F82460FF2A7
:100190005860A5B015461E46D0E90023CDE91223CC
:1001A00003AF00207960B8620DF1500900E04544CA
:1001B0000020ADF8020012AB4FF0FF3229460DF1DE
:1001C000020001F0AEF88046B8F1010F08DA287895
:1001D000B0F1010868EB08086FEA08004FEAD07830
:1001E000BDF8020025280CBFA8F1010BC346BBF1E6
:1001F000010F0EDB2C4614F8011B7868D04700284D
:10020000786000F0F880B86A401CBBF1010BB8625E
:10021000F1D1BDF80200252807D1002038617861AE
:10022000B861F8613862786205E00028BFD1B86A29
:10023000E2E240F0010015F8011F2029F9D023293E
:100240000DD02B2904D02D2906D030290AD00CE05E
:1002500040F0020080B2EEE740F00400FAE740F020
:100260000800F7E740F01000F4E72A290ED13168C2
:10027000316051F8042B3160002A3A6304D55142B1
:1002800040F00400396380B26D1C13E00021396333
:100290000BE0396B6FF00043994205D001EB81030D
:1002A00002EB4301303939636D1C2A78A2F1300129
:1002B0000A29EED329782E2903D04FF0FF31F962B5
:1002C0001FE015F8011F2A2907D1316831606D1C24
:1002D00051F8042B3160FA6213E00021F9620BE05F
:1002E000F96A6FF00043994205D001EB810302EBFC
:1002F00043013039F9626D1C2A78A2F130010A29D4
:10030000EED3B8860FF2E840297801F01BF808B167
:1003100015F8010B8DF842009DF84200682802BFD5
:1003200029786829622005D06C2804BF28786C28B9
:1003300003D171208DF842006D1C14A8F86015F8E7
:10034000014BB4F125002AD01C3800F0DB80001FDF
:10035000022840F2D780133800F0FB80093800F003
:10036000D180801E00F06581401E00F03C81401E5F
:10037000022840F2C780001F00F03581401F00F0C6
:100380009280401E00F0E580401E37D0C01E0BD08A
:10039000801E00F0DE80C01E00F0DB806CE12520B6
:1003A0008DF85000012070E19DF842006C28306803
:1003B000306016D050F8048B3060C7F80880FC6AB3
:1003C000002C04D5404600F0C9FF044607E0224651
:1003D0000021404600F0DEFF08B1A0EB08047C617C
:1003E00054E150F8042B306002A9504600F03EFA68
:1003F000002840F14B814FF0FF30FDE13168316062
:10040000002251F8040B31604FF03C0E0021CDE981
:10041000020114A8B860DDE902019142FC6808BF3E
:10042000904201D1FA6AC2B100F00F033033DBB25F
:100430003A2BA8BF2733AEF101020009A354964618
:1004400040EA017009090022914208BF904204D09D
:10045000BA6804EB0E039A42E6D304EB0E01B960CE
:10046000CEF13C00F96A7861884207DA081AF8612F
:100470004FF6EF71B88E0840B88607E1002940F1C9
:10048000058197F8341001F01401102940F0FE8026
:10049000396B3A69891AFA69891A081A0128C0F26F
:1004A000F580F861F2E09DF8420062281AD06828D1
:1004B00006D06A280CD06C281CD0712808D019E00E
:1004C0003068306050F8041B3060B86A0880DDE0A6
:1004D0003068306050F8042B3060B86AC117C2E948
:1004E0000001D3E03068306050F8041B3060B86A17
:1004F0000870CBE03068306050F8041B3060B86A98
:100500000860C3E03068C01D20F007023260D2E905
:10051000000108323260CDE90201002902D53869B4
:100520002D2109E0B88E810702D538692B2103E01F
:10053000C00705D53869202109F80010401C386132
:1005400014A839690844B860214602A800F09AFB53
:100550009CE09DF842006C280DD0712818BF6A28D5
:1005600009D13068C01D20F007023260D2E90001D5
:100570000832326005E03168316051F8040B3160B7
:100580000021CDE902019DF84200682803D1DDE990
:10059000020180B20BE0622803D1DDE90201C0B2A2
:1005A00005E0742818BF7A2804D1DDE90201002192
:1005B000CDE9020197F83400000731D5DDE90223C7
:1005C0000020834208BF82422AD044F020007828CD
:1005D00026D13869302109F80010401C411C3961CE
:1005E00009F800401CE09DF84200314600F007F990
:1005F000CDE90201DDE9022300218B4202DA3869EC
:100600002D2109E0B88E810702D538692B2103E03E
:10061000C00705D53869202109F80010401C386151
:1006200014A839690844B860214602A800F0A4FA69
:100630002CE09DF842006C2809D001203861306818
:10064000306050F8041B30608DF850101EE03068A8
:10065000306001AA50F8041B3060ADF8041000208F
:10066000ADF8060002A94FF0FF30F862504600F0E6
:10067000FDF800280AD5BEE625208DF8500001209F
:1006800038611CB189F8014002203861386B396942
:10069000401AF969401A7969401A396A401AB969E9
:1006A000401A796AA0EB010897F83400400711D48A
:1006B0002020B8F1010F8DF800000BDB4446012328
:1006C0006A4602A9504600F007FE00287FF493AE68
:1006D000641EF4D1D7F810B0BBF1000F14AC0DD0EC
:1006E00014F8011B7868D047002878603FF483AE87
:1006F000B86A401CBBF1010BB862F1D130208DF813
:100700000000FC69012C0ADB01236A4602A950465D
:1007100000F0E2FD00287FF46EAE641EF4D1D7F83D
:1007200014B0BC68BBF1000F0DD014F8011B786841
:10073000D047002878603FF45EAEB86A401CBBF139
:10074000010BB862F1D130208DF800003C6A012C19
:100750000ADB01236A4602A9504600F0BDFD0028CD
:100760007FF449AE641EF4D1B8687969D7F818B03F
:100770004418BBF1000F0DD014F8011B7868D04766
:10078000002878603FF437AEB86A401CBBF1010B1B
:10079000B862F1D130208DF800007C6A012C0ADBB0
:1007A00001236A4602A9504600F096FD00287FF416
:1007B00022AE641EF4D197F8340040077FF5F8AC00
:1007C0002020B8F1010F8DF80000FFF6F1AC0123F5
:1007D0006A4602A9504600F07FFD00287FF40BAE68
:1007E000B8F10108F3D1E3E40000000000000000CC
:1007F000686A6C747A4C000025B0BDE8F08F6228FE
:1008000026D068281DD06A2808D06C2827D07128E7
:1008100004D0742823D07A280CD020E00868C01DAA
:1008200020F007000860D0E900230830086019466E
:10083000104670470A680A6052F8040B0A600021EB
:1008400070470A680A6052F8040B0A6000B20BE0B5
:100850000A680A6052F8040B0A6040B204E00A68B1
:100860000A6052F8040B0A60C11770472DE9F44F73
:100870000D4694B0D5F830A0BAF1000F804648BFBD
:100880006FF0004A00F0B2FD696B401801900FF65E
:100890007820D0E90023CDE9022395F838004007FD
:1008A00002D40198412805D240200DF11009019091
:1008B000002609E000F0A0FD5FEA0009F8D14FF042
:1008C000FF3056E1AAEB040ABAF1010FC0F2CE8064
:1008D0001498018802AA0DF1010000F0E5FD00283E
:1008E000044600F1DE801498008810B9641E00F1FF
:1008F000D880A245C0F2BA80686901992218914255
:1009000080F0A2806E634042296A401AA969401AA9
:10091000696A401AE969401AA96A461A95F83800C6
:10092000400710D42020012E8DF800000BDB374645
:1009300001236A462946404600F0CEFC002840F0DC
:10094000B0807F1EF4D1D5F814B0BBF1000F4F4634
:100950000DD017F8011BA868C0470028A86000F058
:10096000A080E86A401CBBF1010BE862F1D13020A5
:100970008DF800002F6A012F0ADB01236A46294601
:10098000404600F0A9FC002840F08B807F1EF4D187
:10099000D5F818B0EF68BBF1000F0CD017F8011BA9
:1009A000A868C0470028A8607BD0E86A401CBBF15B
:1009B000010BE862F2D130208DF800006F6A012F40
:1009C00009DB01236A462946404600F085FC0028E1
:1009D00067D17F1EF5D1E868A969D5F81CB0471822
:1009E000BBF1000F0CD017F8011BA868C047002806
:1009F000A86056D0E86A401CBBF1010BE862F2D156
:100A000030208DF80000AF6A012F09DB01236A4610
:100A10002946404600F060FC002842D17F1EF5D1F7
:100A200095F8380040070DD52020012E8DF80000E4
:100A300008DB01236A462946404600F04DFC80BB96
:100A4000761EF6D100266E61224668690DF101011D
:100A5000484400F037FD6869201868611498801CCC
:100A60001490801E008800287FF42CAF686B6969A1
:100A7000401A296A401AA969401A696A401AE96944
:100A8000401AA96AA0EB010A95F83800400710D473
:100A9000BAF1010F0DDB5446A8682021C047A860B9
:100AA00010B94FF0FF365DE0E86A401C641EE86252
:100AB000F2D16B694A462946404600F00DFC0028F9
:100AC000EFD12C6A012C0ADBA8683021C04700282E
:100AD000A860E6D0E86A401C641EE862F4D1AB6905
:100AE000EA682946404600F0F7FB0028D9D16C6A35
:100AF000012C0ADBA8683021C0470028A860D0D0AC
:100B0000E86A401C641EE862F4D1E868A969EB69F0
:100B100042182946404600F0DFFB0028C1D1AC6AEC
:100B2000012C0ADBA8683021C0470028A860B8D093
:100B3000E86A401C641EE862F4D195F8380040076A
:100B40000ED5BAF1010F0BDBA8682021C0470028A1
:100B5000A860A6D0E86A401CBAF1010AE862F3D1A5
:100B60006E616E6304A881451CBF484600F0E6FC38
:100B7000304615B0BDE8F08F2DE9F3430546084631
:100B80002F696F2808BF082405D041F0200178297B
:100B900014BF0A2410243C26D5E90023642818BF7A
:100BA00069289046994606D100218B4203DAD8F194
:100BB000000869EB49090020814508BF80450CD138
:100BC000286B50B9082C38D195F83800000734D577
:100BD00030203B2687F83B002FE0701E0090064631
:100BE000404649462246E31700F0E8FC02F1300097
:100BF000C0B23A2803DB9DF8041051390818B855E3
:100C0000494640462246E31700F0D8FC8046894614
:100C10000020814508BF804503D0E868B9198842A3
:100C2000DBD3082C09D195F83800000705D5B85D4D
:100C3000302802D0761E3020B855B919E960C6F1C7
:100C40003C00296BA861884208DA081A28624FF62E
:100C5000EF71288F08402887BDE8F38300290ED55F
:100C600095F8381001F01401102908D1696B6A69F0
:100C7000891A2A6A891A0E1A012EA8BF2E62BDE8A7
:100C8000F38300002DE9F24F04468EB0D4E9000151
:100C9000CDE9020104AF9DF8380040F0200BBBF114
:100CA000610F0AD0206B002848BF062004D408BF7B
:100CB000BBF1670F01D1012020636168C1F30A50C5
:100CC00040F2FF7290421CD1080304BF2068002844
:100CD00009D10320A0619DF8380061381A2835D366
:100CE0000FF2386108E00320A0619DF838006138F8
:100CF0001A2828D30FF21C61E068032200F0E2FBFF
:100D0000BDE1012815DA204600F0CFFC012810DBF8
:100D100000250020BBF1610F1FD1E16830220A706D
:100D20008A1CE2609DF83820612A0CBF7822582284
:100D30000FE0626840F2FE3161F31E52451A6260B4
:100D40004FF0FF30E6E70FF2C851D5E70FF2C85178
:100D5000D2E74A706169891C616110B900260025DB
:100D600084E1BBF1610F40F09880206BD4E900ABC7
:100D700000284CBF2126461CDDE902010022002389
:100D800000F0B6FC36B23ABF8BF00040CDE902A0CD
:100D9000CDE902AB06F101082D1FB8F1010F8DF866
:100DA00010200DF1110736DBDDE9020100220023DE
:100DB00000F0B6FC2FD21C2102A800F0C9FCDDE92E
:100DC000020100F04FFDA8F10708B8F1010F8146BC
:100DD00009DB00F073FD02460B46DDE9020100F07D
:100DE00085FDCDE90201F81D072105E009F00F029C
:100DF00000F8012D4FEA2919B9F1010F01DB491E55
:100E0000F4D5491E5CBF002200F8012DF9D5C71D9D
:100E1000B8F1010FC8DA0DF11100391AB142B8BFAB
:100E20000E4636B230000DF111072FD4884206DA93
:100E300004A9014449780829A8BF0F2100DA00213C
:100E400004AA024400E0761E12F80139401E8B42CB
:100E5000F9D00F2904D104A901444A78521C4A70E0
:100E6000002802D504AF761C2D1D36B2701E0DD49D
:100E700039180A783032D2B23A2A03DB9DF838307A
:100E80003A3B9A18401E01F80129F2D5206B002840
:100E900040F1EC80701E2063E8E0DDE902010022F1
:100EA000002300F025FC3CBF81F00041CDE90201A8
:100EB0002DB247F2975068434B49DFF8309190FBD1
:100EC000F1F52DB2C5F1070ABAF1010F90461CDB0E
:100ED000DDE902675FEACA7007D542464B463046F5
:100EE000394600F0C3FD06460F4640464946424695
:100EF0004B464FEA6A0A00F0B9FDBAF1000F80468E
:100F00008946E7D1CDE9026724E0CAF1000A00264C
:100F1000374F14E05FEACA7007D542464B46304669
:100F2000394600F0A3FD06460F4640464946424674
:100F30004B4600F09BFD4FEA6A0A80468946BAF1AB
:100F4000000FE7D1DDE9020132463B4600F060FECA
:100F5000CDE90201BBF1660F216BDFF898900CBF61
:100F600005F10A0006204618142EA8BF13263020CB
:100F70008DF810000DF11107012E3DDBDDE90201B6
:100F800000F086FC07F1080104220A23B0FBF3F30A
:100F900003EB8307A0EB4700303001F8010C0A2077
:100FA000B3FBF0F000EB8007A3EB47033033521E96
:100FB00001F8023DE9D1083E012E01F10807DBDB13
:100FC000DDE9020100F064FC00F082FC02460B4601
:100FD000DDE9020100F08AFC00224B4600F046FDEC
:100FE000CDE90201CAE700BFA0860100000024404D
:100FF0000000F03F84D797410DF11100381A0DF130
:10100000110702E0401E6D1E7F1C39783029F9D08F
:10101000BBF1660F08BF691C04D0BBF1650F0CBFA4
:1010200001210021226B8E1836B2B042B8BF0646AD
:1010300036B231001AD4814204DA785C3528A8BF70
:10104000392000DA30207A18521E00E0761E12F89D
:101050000139491E8342F9D0392802D1785C401CFD
:101060007854002902D57F1E761C6D1C2DB29DF888
:101070003810009533B23A46204600F003F80FB01E
:10108000BDE8F08F2DE9F04786B006468A469046C7
:101090001D4600F006FF012D406A376B90F8009066
:1010A00002DA01250FF278284AF02000BDF9384015
:1010B000662808BF641C12D0672878D114F1040F89
:1010C0007BDBBC4279DA96F83800641C000702D456
:1010D000BD42B8BF2F4624B23F1B48BF002724B2F1
:1010E000F068B169012C23DA4A1C30234354012FE4
:1010F00003DA96F83800000703D5F06800F802908C
:10110000521CE742B8BF7C4224B260427062E719C9
:10111000AF42B261B8BF3D46F068B3692DB2F56128
:101120002A464146184400F0CDF9781BB062BCE075
:1011300022469542084416DA2A46414600F0C2F992
:10114000B1696918601B012FB161706203DA96F80A
:101150003800000705D5F06800F80190F069401CE0
:10116000F061B762A1E0414600F0ACF9B069201827
:101170002D1B012F03DA96F83810090703D5F16803
:1011800001F80090401CB0612DB2AF42B8BF3D469F
:10119000F068B3692DB22A4608EB0401184400F048
:1011A00091F9B0692818B061781B70627DE0BAF1DE
:1011B000610F14D14FF0700A16E0BD4204DA96F8C0
:1011C0003810090758BF2F467F1E48BF0027BAF1C5
:1011D000670F14BF4FF0450A4FF0650A04E0BAF1FB
:1011E000410F08BF4FF0500AB169F368481CB06165
:1011F000012F18F8012B5A5403DA96F83810090712
:1012000017D5F168431CB36101F80090012F10DB82
:101210006D1E2DB2AF42B8BF3D46F0682DB22A46D2
:101220004146184400F04EF9B0692818B061781BA7
:101230007062F068B1690144200081F800A004D414
:101240002B20487001F1020804E02D224A7001F1C0
:1012500002086442002502AF08E00A22684600F056
:1012600039FE019807F8010B6D1C009C21B2012981
:10127000F3DA022D06DA4AF02000652804BF302098
:1012800008F8010B4DB9302008F8010B07E06D1E7E
:1012900002A8405D303008F8010B012DF7DAF06844
:1012A000B1690844A8EB0000F06196F8380000F03E
:1012B000140010280DD17069B1690818716A0818F6
:1012C000F1690818B16A0818716B8842BCBF081A26
:1012D000306206B0BDE8F087F8B504460D46164604
:1012E0001F46002077B116F8011BA868A047A86028
:1012F00030B1E86A401CE86200207F1EF3D1F2BDE5
:101300004FF0FF30F2BD00000000000000000000C0
:101310006E616E004E414E00696E6600494E460099
:101320003000F8B504460D4616461F4600F0DAFDBB
:101330003B4632462946204601B0BDE8F04000F069
:10134000E8BD00000278C9B28A421AB11CBF10F889
:10135000012FF9E718BF00207047000000F10103DA
:10136000810704D010F8011B89B18107FAD1026806
:10137000B2F10131914311F0803F04BF50F8042FC6
:10138000F6E710F8011B11B110F8011BFBE7C01ABA
:1013900070470000C9B2830706D0521E22D310F84E
:1013A000013B9942F7D11FE0083A13D302F104023E
:1013B00041EA012141EA014150F8043B121F21BFDB
:1013C0004B40A3F1013C2CEA030C1CF0803FF3D00E
:1013D000C9B2001F083210F8013B521E28BF91EA23
:1013E000030FF8D818BF0120401E704780B500F0E9
:1013F00079FD012002BD000070B5054605F10F0022
:10140000C408AFF30080E400A54232D2082C04D215
:10141000082402E0083000F091F822480268110028
:101420000CD1011D0A6802B31368A34238BF111D15
:10143000F8D310E01D68A5420DD2191D0B68002BD2
:10144000F8D11268011D00E0191D0B6893420CD001
:101450001D68A542F8D361B10D682A68A2F108039E
:10146000A3420AD26A680A600FE000F075FD002806
:10147000D0D1AFF30080002070BD2B190B60121B80
:101480006E685E600B681A602C60096800291DBFD9
:101490004A68002A091D00210160AFF3008005F1B0
:1014A000080070BDE014002070B504460D461646D5
:1014B00000F018FD324629462046BDE8704000F095
:1014C0001BBD000062B38B0708D0521E11F8013B10
:1014D00000F8013B00F024808B07F6D1830740F031
:1014E000208000BF103A07D330B4B1E83810103A6A
:1014F000A0E83810F9D230BC530724BFB1E8081077
:10150000A0E8081044BF51F8043B40F8043BD20760
:1015100024BF31F8022B20F8022B44BF0B78037054
:101520007047083A07D3B1E80810083A40F8043B7E
:1015300040F804CBF7D25307E4E7000000B9704746
:1015400038B5A0F108042068082833D310F0070F3D
:1015500030D1AFF300801848416809B18C4203D202
:101560006160446017E019464B680BB1A342FAD39F
:101570000B68CD18AC421BD3A54204D12268D21807
:101580000A600C4607E04A681AB1236823449A426D
:101590000ED362604C60616851B12268A3188B421F
:1015A00006D10023036008688018206048686060E6
:1015B000AFF3008031BD0000E01400201B4213D1C6
:1015C000094236D12AB18446B0FBF2F002FB10C2C8
:1015D000704700F0D7BCFCD30022002370470B00FB
:1015E0000200002100207047904271EB030CF6D3FB
:1015F00070B5B1FA81F4B3FA83F52C1BA340C4F1A2
:10160000200532FA05F63343A2405FF00046E6407B
:1016100002E05B085FEA3202841A71EB030524BF23
:10162000204629467641F4D302000B003000002109
:1016300070BD012ACFD970B5140C20D0B1FA81F455
:10164000B2FA82F5C4F120046419B4F12006D6D3AD
:10165000B2405FF00044F440002502E052085FEA27
:101660003303C61A71EB020E24BF30467146644143
:101670006D41F3D302000B002000290070BD0C4621
:10168000B1FBF2F102FB11452D0445EA1045B5FB13
:10169000F2F402FB145580B240EA0545B5FBF2F0C6
:1016A00002FB105240EA044070BD30B4436803F0BE
:1016B00000420121C3F313034360002B04BF0368FE
:1016C000002B08D10DE00368DD0F45EA44044460B7
:1016D0005B000360491E4468E302F4D5C4F31303BE
:1016E000436043681A434260084630BC70470000BC
:1016F0004FF4001C1CEB410F94BF1CEB430F09E09F
:1017000041EA030C50EA4C0C52EA0C0C03D2994209
:1017100008BF9042704714BF8B428242704700005E
:101720004FF4001C1CEB410F94BF1CEB430F09E06E
:1017300041EA030C50EA4C0C52EA0C0C03D28B42E7
:1017400008BF8242704714BF994290427047000020
:1017500070B504460D466068C0F30A5040F2FF7150
:10176000884207D16068000304BF2068002817D0B2
:10177000022070BD20B92046FFF797FF012866DAE6
:10178000012D0FDB40F2FF71091A8D420AD3606808
:1017900000284CBF9FED2F0B9FED300B84ED000B0D
:1017A000012070BD4142A942616806DA6FF31E5103
:1017B000401941EA0050606040E0401E63684519EE
:1017C000012205F1350062F31F53352801F0004175
:1017D000636003D361600020206070BD002015F1BC
:1017E0001F0F04DA206823600022203562606A42FD
:1017F00012D0401E25688041C2F12003C0439D40A5
:1018000045EAD07025686668D54006FA03F32B4395
:1018100023606368D340636062680A43B0F1004F9D
:10182000626003D80DD12078C0070AD52068401C1B
:101830002060206828B96068401C60604FF0FF306D
:1018400070BD6068884204BF20680028F6D100207F
:1018500070BD00BF000000000000F0FF00000000AD
:101860000000F07FF446400D40EAC120490006D256
:1018700000F014F8004248BF6FF00040604700F0ED
:101880000DF84FF0004188428CBF08464042604747
:10189000400D40EAC120490080F00D8040F000403A
:1018A000490DA1F58061491C05D4D1F11F0154BF38
:1018B000C840C01770474FF000007047010040F16A
:1018C0000980F446404200F005F851F000416047BD
:1018D000010000BF09D0B0FA80F18840C91CC1F5F1
:1018E0008461090501EBD02140057047F0B44FF049
:1018F000004591EA030F44BF6B4000F045BB00BFB9
:10190000841A71EB030604D26E40001BB141121918
:1019100073414FF4001C1CEB410F34BF7CEB4306BA
:1019200084E00C0DA4EB1356362E7DDC012E43DC37
:1019300045EAC32343EA525312BFD20292025B0824
:10194000240545EAC12141EA5051D2EBC02099411A
:1019500025D407D1B0FA80F610FA06F164D0002041
:10196000203608E0B1FA81F6B140C6F1200220FA33
:1019700002F21143B0404FEAF474B4EB465434F031
:1019800001064FEA74040AD8D6F50016760D04F065
:101990000044F04061FA06F25040F1404840C00A6D
:1019A00040EA415021F0004128BF5FEA500550F164
:1019B000000044EBD12137E045EAC323DB0A45EAC6
:1019C000C121C90AB6F120050EDD42EA0242120C1D
:1019D000C5F1200603FA06F6EB4042EA06056D4221
:1019E000984161F100010DE062FA06F5F2405540C0
:1019F00063FA06FC82EA0C02F3405A406D429041C1
:101A000061EB030111F4801F05D1641E620502D051
:101A10006D004041494121F48011430875F10043B4
:101A200050F1000041EB0451F0BC70471CEB410F3A
:101A300015D223F0004352EA43060BD04FEA4C0C78
:101A4000BCEB410F04D80C0D661E342EB7DDEBE75E
:101A5000801A994150EA410608BF0021E4E708BF17
:101A60001CEB430F28BF6FF00001DDE7B0B581EA42
:101A7000030C0CF0004C40F2FF7515EA11541DBF29
:101A800015EA1357AC42AF4239E0E41923EA455353
:101A900043F48013C90241F0004141EA505EC7029D
:101AA0001100A7FB020200284FF00000EEFB01200E
:101AB0004FF00001E3FB072118BF42F0010240187C
:101AC00000214941E3FB0E01A4F580640F0302D21B
:101AD00052004041494154F101046CDD470872F164
:101AE000004250F1000051EB0451A1F580115CBFA0
:101AF00041EA0C01B0BD4CEA05510020B0BD05EA39
:101B00001357AC4214BFAF4241E050EA410E1CBF34
:101B100052EA430E02E061460020B0BD24423C443C
:101B20001BD15FEA070EF6D0090302BF0146002071
:101B3000AEF1140EB1FA81F7AEEB070401FA07FE1D
:101B40000C37C7F1200100FA07F7C8404EEA000E33
:101B500023EA455343F48013A2E733F00043B3FA7A
:101B600083F704BFB2FA82FE77440B3FE41BB7F160
:101B7000200E2FBF02FA0EF3BB40C7F1200E22FA4F
:101B80000EFE38BF43EA0E03BA40641C82E750EAF7
:101B9000410E14BF52EA430E6FF000014FF40017DC
:101BA00017EB430F8ABF194617EB410FB5E74CEA15
:101BB00005510020B0BDD4F10104B4F120070FDAC3
:101BC000C4F12007520828BF42F0010210FA07F5BD
:101BD00001FA07F7E1BF2A43E0403843E1400FE054
:101BE000352C98DCC7F1200452EA400220FA07F2B3
:101BF00018BF42F0010231FA07F0A1400A43002168
:101C000072F1004250F1000051EB0C01B0BD000038
:101C10002DE9F04140F2FF7581EA030C0CF0004C15
:101C200015EA11541DBF15EA1357AC42AF42E9E063
:101C3000BC41C1F31301C3F31303801A994143F468
:101C4000801304D2641E4000494180185941C902E2
:101C500041EA5051B1FBF3F603FB1611A2FB0675E6
:101C6000D7EBC020A94102D2761E80185941C90283
:101C700041EA5051B1FBF3FE03FB1E11A2FB0E75AE
:101C8000D7EBC020A94103D2AEF1010E8018594113
:101C9000890241EA9051760546EA8E2EB1FBF3F6B1
:101CA00003FB1611A2FB0675D7EB8020A94102D2D7
:101CB000761E80185941C90241EA50514EEA060E7B
:101CC000B1FBF3F603FB1611A2FB0675D7EBC020A0
:101CD000A94102D2761E80185941C90241EA5051E9
:101CE000B1FBF3F703FB1711A2FB0735D3EBC020C1
:101CF000A94167F100070CBF004247F0010766F3F6
:101D0000D5274FEA1E31B80814F5806414DDBD07ED
:101D100075F1004250EB0E5051EB045111F5801F4C
:101D20005CBF41EA0C01BDE8F0814CF07F6141F0FD
:101D3000E0410020BDE8F081BD076D0840EA0E508B
:101D400041F48011D4F10104B4F120060ADAC4F19F
:101D500020060200E04001FA06F3E1401843B240D9
:101D600015430EE0342C14DCC6F1200445EA40058E
:101D70006D0820FA06F2154321FA06F0A1400D4342
:101D8000002175F1004250F1000051EB0C01BDE85B
:101D9000F08100205FEA0C01BDE8F081CFB9921814
:101DA0005B41B3FA83F704BFB2FA82F6BF190B3F67
:101DB000B7F120062FBF02FA06F3BB40C7F1200699
:101DC00022FA06F638BF3343BA401CB1E419641E48
:101DD0002FE77F4231F00041B1FA81F404BFB0FA3D
:101DE00080F6A4190B3CB4F120062FBF00FA06F1CF
:101DF000A140C4F1200620FA06F638BF3143A040C6
:101E00003C1B16E7AC421ABF05EA1357AF4214E079
:101E100050EA41061CBF52EA4306BFE750EA4107B9
:101E2000304661461CBF41EA0551BDE8F08152EAE7
:101E3000430C08BFC143BDE8F08100204FF40016F9
:101E400016EB410F98BF16EB430F08BF16EB410F7F
:101E500024BFC14305E016EB430F0CBF61464CEABB
:101E60000551BDE8F081000080B5134800F0F6F898
:101E70000FF24C020FF244010160426241600FF226
:101E80004402826381600FF24402C16001614161DA
:101E900081618162C16201634163C2630164416423
:101EA00001BD10B5044800F0D9F80446206808B90F
:101EB000FFF7DAFF204610BD440A002000000000B2
:101EC0002E00000066616C73650000007472756519
:101ED0000000000091FBF2F303FB1211C0E9003196
:101EE0007047000080B5DFF80C0000F0B7F880699B
:101EF00002BD0000D40A002030B430B90FF248000F
:101F0000D0E90045C2E900451BE00170012030BC6A
:101F1000704730B431B90FF23800D0E90045C3E959
:101F200000450EE01AB930BC6FF00100704708B1EF
:101F30000A7802800978481E804130BCC043C00F37
:101F40007047002030BC7047000000000000000017
:101F500000000000000000000749086808B10020E8
:101F600070470648C008C00008600549C908C90094
:101F7000091A0160704700BFF0140020470F0020CD
:101F80004011002070470000841A71EB030603D251
:101F9000001BB141121973414FF4001C1CEB410F9F
:101FA00034BF7CEB430443E00C0DA4EB1356352EF9
:101FB00050DC45EAC323DB0A45EAC121C912B6F168
:101FC00020050DDD63FA05F6EB4086EA03051242B3
:101FD00018BF45F00105C01851F100010CD213E003
:101FE00062FA06F5F2405540F3415A40B340F340DF
:101FF0005A408018594107D349085FEA30005FEA28
:10200000350528BF45F0010501F58011420875F13D
:10201000004250F1000041EB0451F0BC4FF4001CB1
:102020001CEB410F38BF70470020090D09057047B0
:102030001CEB410F10D252EA43060BD0BCEB410F10
:1020400005D80C0DAB43661E342EB5DD02E0AB4364
:1020500080185941F0BC7047F0BC704770470000D1
:1020600008B91F20704700210FF63C1202EBC10295
:102070001368984204D39368984201D2107B70474A
:10208000491C1529F0D3FEE710B5DFF8E8482062B7
:102090000FF2797000F0E4FC00F047F9012000F045
:1020A00058FE0021002000F0D7FF0421002000F09E
:1020B000E3FE4FF6FF7100F036FB40F6AC0000F097
:1020C000FEFA40F6890000F0FAFA4FF492700FF22F
:1020D0001D71204401F054F84FF49E700FF21D71F1
:1020E000204401F04DF80020A07010BD80B501F033
:1020F00070F9042804D0052804D0072804D005E08E
:10210000022002BD012002BD032002BD002002BD4D
:1021100010B50128DFF8604805D0002000F0A2FECD
:102120000020607010BD00F09DFE20786178814233
:1021300003D06070BDE8104035E310BD00F074BE00
:102140002DE9F04180468AB00F4614461D46002016
:10215000FFF7DEFF404600F067FE00200890079082
:1021600006900590049003900290012603200190B0
:102170000996009700234FF416723946002000F0AC
:1021800027F8002000F060FA012001F083FA01F046
:10219000B6F80746384601F0B9F8A84204D200F074
:1021A00064FF8442F6DA002600F038FA30460AB0BE
:1021B000BDE8F08180B50120FFF7AAFF00230022CF
:1021C0000021002000F005FEBDE8014000F0DABC6F
:1021D0002DE9FC4F83B08846DFF898471799617066
:1021E000DDF8409009B14FF00009DDF844A05FEA46
:1021F0000A0114BF1299FF2121700F9EDFF87C178E
:10220000DDF84CB001F1B80501F1E00710B101288B
:1022100034D084E000F06EFD0020387003987860C0
:102220000B2038734FEA4800FFF71AFF787300203D
:102230002870F00000F011F9BBF1000F8AF00100E6
:10224000E8712078287214BFF220012000F06AF8AB
:1022500000F012F900F014F900F0FCF80FF23871F8
:1022600000F003F940F2FF1000F070FC4FF4FA5058
:10227000039900FB09F0B0FBF1F04FE0002000F003
:1022800039FD01203870B8F1000F039838740FF24F
:10229000C87010F8080078749DF81000B87403D165
:1022A00003980B2803D105E0B8F1010F04D103987E
:1022B0000C2801D1012000E0002000F0C5F818BF73
:1022C000062802D10C2EB8BF0C26AE8185F80EA0D0
:1022D0002078E87385F810B01698687400F025F837
:1022E00000F0CAF800F0CCF800F0B4F85FFA89F01A
:1022F00000F005FD687C40F236760128304604D1B6
:1023000001F051F900F0FB0103E001F04CF940F05D
:102310000401304601F00FF94FF6FF70E06105B09F
:10232000BDE8F08F68720120A872002000F073BC35
:102330002DE9F24F82B05FEA000ADFF840060C99FF
:102340000E9CDDF83C90109EDFF828B6904600F118
:10235000B80500F1E00703D0BAF1010F28D054E02E
:102360000020387079600B2038735800FFF778FE32
:102370007873C7F8088000202870E00000F06DF83E
:10238000002E89F00100E87114BFF2200120FFF750
:10239000C9FF00F071F800F073F800F05BF80FF27D
:1023A000006100F062F840F2FF1000F0CFFB2CE07B
:1023B0000120387039740FF2A060C05C78740D98F9
:1023C000B87413B90B2902D103E0012B03D10C29F6
:1023D00001D1012000E0002000F036F818BF0628E7
:1023E00002D10C2CB8BF0C24AC8185F80E909BF860
:1023F0000000E8732E7413986874FFF796FF00F0DE
:102400003BF800F03DF800F025F8BAF1010F04BFE9
:10241000787C062840F6890405D1204601F0C3F8EF
:1024200000F0FB0104E0204601F0BDF840F004019B
:10243000204601F080F89DF9080001F00AF914988F
:10244000CBF81800BDE8F78FF87401202870387CAD
:1024500005287047284600F094BD68800420287144
:10246000182068710020A87170476846D1E90023E0
:10247000C0E9002300F042BB387800B1012047E6F4
:10248000384600F03EBD01207047F0B5121D002413
:10249000052918BF062902D10C2BB8BF0C2310B98F
:1024A0000B2902D103E0012802D10C2900D101241B
:1024B00007980028059814BF1025002500280698C5
:1024C00014BF002614268F0005EBC000C01B301877
:1024D000072903D308300CB18C1EA700002848BF81
:1024E00000203818401E90FBF7F002FB00300C3043
:1024F000072938BF801C80000122891E401C02FA77
:1025000001F14843F0BD00002DE9F0410E4684B0D2
:1025100011461A460A9BDDF82CC00C9D0D9C002725
:102520004FF0010E4FF47A7810B1012811D045E038
:10253000BCF1000F08BF0820002C14BF02220022AB
:10254000EB18D21800EBC200183008FB00F78E46DB
:1025500034E0CDF800C0029401953046FFF795FFB6
:1025600008FB00F70FF2F040805D0A284FF0000EE4
:1025700024D8DFE800F0211B150F0C0906231E18D4
:102580001200DFF8FCE319E0DFF8F8E316E0DFF80B
:10259000F8E313E04FF2244E10E04AF2C32E0DE0B0
:1025A00047F6122E0AE045F2611E07E043F6095E87
:1025B00004E042F6B10E01E041F6846E0EEB070036
:1025C000401EB0FBFEF004B0BDE8F081F8B5044653
:1025D0000D4640F2012000F04FF800F04AFCDFF811
:1025E0009C6306F1C00701280CBFFD713D7006F128
:1025F000B80000F0C6FC00222946204600F076FA1A
:10260000DFF870034FF4927144188169204600F09E
:1026100065FE2046BDE8F24000F0BBBD80B50FF27C
:102620003C40006800909DF8000040F004008DF8E8
:102630000000009800F0D6FABDE80240022001F048
:1026400029B8002000F0E7BA70B500F012F8C94DC3
:1026500024B100F02BF8304600F09BFD687800288C
:1026600012BF6FF07F40E8698001BDE8704000F064
:10267000EBBA04464FF6FF7000230022014600F03B
:10268000A8BB70B5FFF7F5FFBA4D24B100F00EF806
:10269000304600F07EFD6878002812BF6FF07F4062
:1026A000E8698001BDE8704000F0D6BA4FF49E7032
:1026B0002E182146304600F011BE00F0E9BA3EB5B2
:1026C000044640F29F2509226946284600F039FF5A
:1026D0009DF80000002100E0491C814209DA6A46A9
:1026E00002EB41025378927802EB03229442F3D139
:1026F00037BD04280DDA411C8DF800100922694607
:1027000001EB4001200A48708C706946284600F0B1
:10271000F1FE37BD80B54FF4C07100F004F8BDE89C
:10272000014000F0D0BA00230022084600F051BB5F
:1027300038B50C46154600F077FB204600F089FFBF
:1027400000F0CCFA4FF47A70904C00FB05F1204673
:1027500000F0C4FD2046BDE8324000F01ABD00F094
:1027600084BC80B200F0E7BE80B200F01CBF80B233
:1027700000F0C0BE80B200F0E4BE804A10B502F1A5
:10278000BF03B83201287B4C02D12170197204E0DA
:102790001878012806D1217059701046BDE8104004
:1027A00000F0EFBB10BD38B50446734804704470A8
:1027B0000120FFF7ADFC40F2417534B134214FF4F4
:1027C000E86000F0B8FE442105E014214FF4E86011
:1027D00000F0B1FE24212846BDE8344000F0ABBE35
:1027E00080B500F0F1FDC01C02BD00006148006A28
:1027F00018B14068010018BF004770475D48006A83
:1028000018B1C068010018BF00477047594901203E
:10281000887070472DE9F04184B002A800F03CFFB9
:10282000544CA5780020A07002A800F03AFF002DBB
:1028300000F09E8000F0E6FA054600F085FC01A855
:1028400000F02AFF00F01BFF012808BFA07001A8BC
:1028500000F027FF4FF492702618E8070AD530469B
:1028600000F00EFD00F094F8206A18B10068010035
:1028700018BF80474FF49E702718A8073BD53846ED
:1028800000F0FEFC6078690609D508B900F080F810
:10289000206A80B3006901002DD080472BE080B909
:1028A00000F076F8002140F6021000F044FE40F6F9
:1028B0004418404600F077FE40F00201404600F028
:1028C0003AFEFF22694604F1240000F0F7F8201DCB
:1028D00000F0F2FB206A00281CBFD0F808C0BCF151
:1028E000000F08D094F9113094F910209DF80010D1
:1028F00004F12400E04728060AD500F049F8206AD0
:1029000030B18169080003D0280A00F0010088472F
:10291000A8051ED500F05DFD04280BD1304600F05F
:10292000AFFC00F035F8206A98B14068010010D083
:1029300080470EE000F04DFD05280AD1384600F032
:102940009FFC00F025F8206A18B1C068010018BF8C
:102950008047A8060CD5384600F092FC607808B98C
:1029600000F016F8206A18B1C068010018BF80474F
:10297000BDE8FF81A0080020E814002040110020DD
:1029800020A1070090D0030048E80100C4090020FE
:10299000012000F021BD0000C194C1000000000032
:1029A000C194C10000000000C01200001F00000020
:1029B000A816000017000000841C00000F00000093
:1029C000E42500001E000000B42D000016000000E9
:1029D000083900000E0000002C4C00001D00000013
:1029E000685B000015000000747200000D0000001C
:1029F000589800001C00000034B7000014000000CC
:102A0000E8E400000C000000783101001B00000029
:102A1000686E01001300000034CA01000B000000C2
:102A2000286202001A00000040DB020012000000D1
:102A30003C9303000A000000C0C20400190000001B
:102A400060B30500110000003820070009000000F5
:102A500020A107000000000004050600000000009F
:102A600010B5044600F0BBFC204600F083FC00F0EB
:102A7000D4FC002000F0CFF800F0A5FC00F0A6FC8C
:102A8000DFF8A416002008700120BDE8104000F017
:102A9000A3BC80B500F09DFC18B100F09AFC06289C
:102AA00003D100F0BAFC00F0D9FDBDE8014000F010
:102AB000ABBC0A460146002000F07DBD70B582B077
:102AC000044600208DF800000D461646694628464B
:102AD00000F0D7FA2A78964201D2012076BD9DF8FF
:102AE0000000214600F08FFD002076BD10B5144691
:102AF000FFF7DFFF2046BDE810409BE080B50146B0
:102B000008224FF4D86000F0F5FC002002BD80B52B
:102B100000F013F828B90222694640F2BC6000F0C8
:102B2000E9FC01BD80B500F008F828B90222694629
:102B300040F2BE6000F0DEFC01BD8DF80100010A2C
:102B4000DFF8E80500788DF80010704710B50446EE
:102B5000DFF8D8050078A0B94FF4D76000F023FD66
:102B6000210A01F0010100F0FE0001434FF4D7609B
:102B700000F0E1FCE1B2BDE8104040F2B96000F0C5
:102B8000DABC10BDF8B50020009040F6E204204603
:102B900000F009FD054605F0FE01204600F0CBFCE3
:102BA00040F6E506304600F0FEFC074607F07F01E0
:102BB000304600F0C0FC6FF07F4000F045F8042282
:102BC000694640F6190000F0BCFC002000F023F834
:102BD0002946204600F0AFFC3946304600F0ABFCF9
:102BE0000098F2BD01B582B000F03FFD9DF80800ED
:102BF00000F007008DF800009DF80800C0F3800089
:102C000010B9DFF82415087001226946842000F00D
:102C100026FC002054E001B501226946802000F026
:102C20001EFC9DF8000000280CBF0120022000F0CF
:102C3000D3FB01BD10B5044682B0042000F0CCFBEC
:102C400000F01BF8832015E010B5044682B0052083
:102C500000F0C2FB942106E010B5044682B00520C6
:102C600000F0BAFB962140F6AC0000F064FC00F0E6
:102C700004F8822000F0F3FB13BD200C8DF8000057
:102C80008DF80240200A8DF8010003226946704742
:102C900000B583B0020C8DF802008DF800208DF88D
:102CA0000510020A080C8DF803008DF80120080AAF
:102CB0008DF8040006226946942000F0D0FB06201F
:102CC00000F08AFB07BD80B500220021C52000F07E
:102CD000C6FBBDE80240072000F07EBB80B50022A5
:102CE0000021D120FFE700F0BAFBBDE8024004203C
:102CF00000F072BB01B5012269469F202DE070B53E
:102D00000446F92CAFBF7C25601C0004450C82B042
:102D1000EDB2002603E0E81C85052D0E761C202D63
:102D2000F9DAF6B27000401C05FA00F08DF80000E8
:102D300001226946A02000F092FB4CB106EBC500D1
:102D40008DF8000040F206709DF8001000F0F3FBD3
:102D500073BD01B501226946962000F080FB01BDDC
:102D600080B5DFF8CC239042694604D3E1208DF88A
:102D70000000E92022E0DFF8BC23904204D3D720F2
:102D80008DF80000DB2019E0DFF8AC23904204D37B
:102D9000C1208DF80000C52010E0DFF8A02390428C
:102DA00004D375208DF80000812007E0DFF8902320
:102DB000904204D36B208DF800006F2048700222EF
:102DC0009820CAE780B500F03EF9042269469520B4
:102DD000C3E71CB58DF801008DF803108DF80520B0
:102DE000040A080A8DF802008DF80730100A8DF8E1
:102DF00004008DF80040180A8DF806000822694684
:102E0000082037E780B502226946122000F04DFB0A
:102E10009DF800009DF8011041EA002002BD01B5B7
:102E2000012269469D2098E738B5BF4D04462878B1
:102E300020B92046FFF794FF01202870204600F0BB
:102E40008DF9010E8DF800108DF80300010C8DF83E
:102E500001100422010A8DF802108620694600F054
:102E6000FEFA31BD01B5B1490870012269468A20D8
:102E700073E7AE4800787047B0B582B004460D469F
:102E800000F0EAFB012818D10F2C06D10123012202
:102E900000210620FFF796FF07E001230122002111
:102EA0000420FFF78FFF0E2C01DB0E241EE014F12F
:102EB000110F1BDA6FF0100418E040F6D8073846FF
:102EC00000F071FB40F01E01384600F034FB012396
:102ED000002207210420FFF775FF172CA8BF162436
:102EE00004DA14F1090FB8BF6FF00804E4B28DF8EA
:102EF00000408DF80150022269468E2000F0AFFAA2
:102F0000B3BD1CB50021CDE90011044687492078E6
:102F10000978814218BFFFF7A5FF217811B1012977
:102F200021D013BD62688749B1FBF2F10A0C8DF81C
:102F300000208DF802100A0A8DF80120217B8DF8FF
:102F40000310617B8DF80410A06800F007F9010CF4
:102F50008DF805108DF80700010A8DF8061008227B
:102F600069468B2086E6217C8DF800100422617C66
:102F70008DF80110A17C8DF80210E17C8DF8031012
:102F8000EEE75EB5044668460021002200230EC02D
:102F9000664E20783178814218BFFFF763FF2078B2
:102FA00010B1012839D057BD607AF12809D14FF608
:102FB000FF70FFF7ACFD48F20500FFF7B3FD0220FC
:102FC0000AE0F22808D141F60F50FFF7A0FD41F2C8
:102FD0002100FFF7A7FD06206188090A8DF800107F
:102FE000092261888DF8011021798DF8021061792C
:102FF0008DF80310A1798DF80410E1798DF8051092
:10300000217A8DF807008DF80610A07A8DF8080057
:1030100069468C2000F023FA57BDA089000A8DF87C
:1030200000000622A0898DF80100A07B70708DF849
:103030000200E07B8DF80300207C8DF80400607CAA
:103040008DF80500E4E78DF800008DF801108DF88B
:1030500002208DF80330704780B58DF800008DF8A0
:103060000110022269468F2077E680B50122694669
:10307000152000F01AFA9DF800004042C005001625
:1030800002BD38B504460D4602226946132000F001
:103090000CFA26480178012904BF4078012804D1A0
:1030A00040F2027000F07FFA01E09DF8000020700D
:1030B0009DF80100287031BD10B582B0044603228E
:1030C0006946142000F0F1F918480178217011B117
:1030D000012910D021E09DF8000020719DF8010029
:1030E00040424010A0719DF80200404240106071C3
:1030F0000020A06013BD9DF80010494249102173C3
:103100009DF90110891C891061739DF802104942D4
:103110004910A1734068206113BD1421204600F0BE
:10312000CBFA0F20207013BDF5140020D814002016
:1031300001E9A43581F8A9328144E52D010B6B1B0F
:1031400041FC54190000093D80B5010A8DF80010BA
:103150008DF80100022269460220FEE543F609517E
:10316000B0FBF1F143F6095202FB1100800300F5B8
:10317000F0508430B0FBF2F000EB8130704700007B
:1031800000220260426002724272C16002614261CA
:10319000704738B50446684600F07EFA74B3334D84
:1031A0002868014602E0A14228D049690029FAD1E5
:1031B00061682160012121720021617210B900F063
:1031C0007FFA08E000F046FB21684018206029687B
:1031D0000A68904203D2204600F011F80EE04A69D6
:1031E00001E0114652694B692BB113688342F8D351
:1031F0004C61626102E04C61002060616AE01B4941
:103200000A680AB100235372426108608EE010B56B
:1032100000F05FFA044600F053FA011B134C2068DB
:1032200018B3024600E0136052692AB1136899424C
:1032300034BF5B1A0023F6E700F01AF800D1FEE76E
:1032400000698847206880B100F004FB01462068CF
:1032500002688A4203D200F00BF8F1D1FEE720B1F8
:10326000417A11B9BDE8104060E010BDEC140020B7
:103270004169216000210172C1680A0070470000A5
:1032800038B50546684600F007FA0A4C21680A007E
:1032900018BF002D08461DD00023A9422B7210D163
:1032A00048694A7A5AB14B7230B1206000F03EF85A
:1032B00010E000BFEC14002000F028FA002020608D
:1032C00008E0AA4202D15169416103E01046526907
:1032D000002AF6D1684600F0E4F931BD38B504465D
:1032E000084600F0FBF905462046FFF7C9FF00F04D
:1032F000F3F9854238BF05462560656031BD80B56C
:1033000000F0A0FABDE8024000F0EEB938B50400C4
:1033100001D1002032BD00F095FA0546204600F0AC
:10332000DDF9281ABDE8324000F0DEB938B50446B0
:1033300000F0D2F905460120607200F08BFA216896
:103340002818814203D200F085FA281820602068EE
:10335000BDE8324000F0D2B91CB500F02DF80122D2
:103360000021204600F004FB0120019000230020F2
:10337000009005E0034603220121C24800F004BB8F
:103380000122082104F1A40000F0F2FA00F00FF885
:103390000022132104F1140000F0EAFA00F007F80B
:1033A0000022142104F1280000F0E2FA13BD0020ED
:1033B00001900090002370470120019000200090B0
:1033C0000023B14C70477047052070470120FFF77C
:1033D00026BDAE4800787047AC490870704710B5FC
:1033E0000A2000F057F9A84C0021204600F0CDFA41
:1033F000142000F04FF90121204600F0C6FABDE884
:1034000010400A2000F046B910B59F4C04F114009A
:1034100000F0F4FA0128F9D010BD38B5684600F084
:103420003BF9994C04F1A4050021284600F0ADFABF
:10343000C02104F1640000F013FC002104F16400D9
:1034400000F00EFC0121284600F09FFAFFF7DCFF98
:103450008E4901200870684600F023F931BD2DE93E
:10346000F84300F0C4F8DFF8209209F1A40800F056
:10347000C6F8214609F1640000F0F2FB002706E0DF
:10348000BFB209F16400E95D00F0EAFB7F1CB8B24D
:10349000B042F5D30121404600F077FA842C02D0E7
:1034A000BDE8F143B0E7BDE8F1832DE9F8430646F6
:1034B0000C469146FFF7EDFA734D05F1A40800F0B4
:1034C0009EF8314600F033F800F068F80646002711
:1034D00004E000F063F8BFB2E0557F1CB8B2484585
:1034E000F7D30121404600F050FAFFF78DFFF0B20C
:1034F000BDE8F2832DE9F04100F044F800F047F810
:103500000D2100F014F8390A00F011F800F00DF860
:10351000002706E0BFB205F16400E15D00F0A0FB0A
:103520007F1CB8B24045F5D325E007F0FF0105F157
:10353000640000F095BB02B501226946FFF7DAFF8F
:1035400001BD2DE9F04100F01DF800F020F81D212B
:10355000FFF7EDFF390AFFF7EAFFFFF7E6FF00F09C
:103560001DF8002704E000F019F8BFB2E0557F1CF9
:10357000B8B24045F7D30121304600F006FABDE865
:10358000F04141E707460C469046FFF782BA3E4DB0
:1035900005F1A4060021304600F0F7B9002105F13D
:1035A000640000F05DBB80B501226946FFF7C9FFEA
:1035B0009DF8000002BD2DE9F04100F018F800F080
:1035C0001BF80E2107F1640000F04AFB00F037F809
:1035D000002406E0A4B207F16400295D00F040FB7E
:1035E000641CA0B2B042F5D301214046C5E70446B1
:1035F0000D461646FFF74DBA234F07F1A4080021E8
:10360000404600F0C2B92DE9F041FFF7F0FFFFF7A7
:10361000F3FF1E2107F1640000F022FB00F00FF819
:1036200000F012F8002404E000F00EF8A4B22855CF
:10363000641CA0B2B042F7D3012140469DE7214669
:1036400007F1640000F00CBB002107F1640000F0FA
:1036500007BB0221FFF710BC0220704700B583B002
:103660000120FFF7A5FE012204E000B583B0FFF7BB
:103670009EFE03220921064800F07AF907BD0148A1
:1036800000F0BCB96811002040110020F4140020A3
:10369000C414002000F004BBEFF31081016072B687
:1036A0007047006880F31088704780B500F0FAFA20
:1036B000BDE8014000F055BB002200F063BB0000F4
:1036C00010B59D4C211D04F1180000F0CEF82060CB
:1036D00010BD99480068704703207047410EC00133
:1036E0007D220023FDF76ABF820A4FF47A71C0F38E
:1036F00009004843800A01FB0200704710B50446E8
:1037000000F0A8F82046BDE8104015E010B58A4C3E
:1037100000F00CF8206AC16801F0800161F4C0710A
:10372000C1604FF480208549086010BD4FF480715E
:1037300004F1200000F052BD2DE9F04F7E4D83B022
:1037400083462F79A8686E7995F806A095F80780CA
:10375000AC7E95F81B900190687E0090FFF7D6FF35
:10376000019940F2FF30401ACBF30901081880B2EA
:103770004FEA9B2102E0724A5118641C714A91423F
:10378000F9D202E0A1F561617F1CB1F5616FF9D258
:1037900001E03C39761C3C29FBD201EB0A0202E035
:1037A000A0F58060521CB0F5806FF9DA92B23C2A25
:1037B00024BF3C3A761CF9D201E03C3E7F1CB6B2F5
:1037C0003C2EFAD2BFB2182F24BF183F641CF9D286
:1037D0004FEA590309EB93739B08B9EB8303DDF8B8
:1037E00000A00CBF0FF27C130FF26C135344A4B271
:1037F00013F8013C2146A3423CBF91FBF3F403FBC9
:103800001414514940F2FF33181A48608A704FF07F
:1038100020600022C8614E7001F124000F700A621E
:103820004A6104704FF4807242600020C8600861F1
:1038300081F8038005F1200003B0BDE8F04F0022BD
:1038400000F0F4BB00B587B001A9684600F00DF8A0
:1038500007B000BD00B587B001A9684600F005F8C3
:1038600035490968401A07B000BD2DE9F041054609
:103870000C46364EDFF8C08037680022294608F132
:10388000200000F0A8FB0022214608F1200000F0F3
:1038900030FB30688742EFD1E87840F2B55111FB38
:1038A00000F14208C91C00EB927289089208B0EB43
:1038B00082000CBF264827486A783D2313FB02F399
:1038C000521E3C3B520003EBD373D04001EB63012B
:1038D00000F00300081AA978A278491E08181949AF
:1038E00001FB002061783C2212FB010021784FF49B
:1038F000616212FB0102616840F2FF30401A002150
:1039000010EB822051EB9251BDE8F0810B494FF44E
:10391000802008600848006A8168C9040AD5C16827
:10392000C90507D5C16801F0800161F4C071C160AB
:10393000FFF76DBC704700003014002014040140F4
:1039400080AEFEFF80510100741400202828004042
:1039500050554400A0AA99001F1C1F1E1F1E1F1FA8
:103960001E1F1E1F1F1D1F1E1F1E1F1F1E1F1E1F6F
:1039700082B0012A017002D1039902B005E00FF272
:10398000AC0002B000F0F6BC704780B590F9003092
:103990002448212B02D1CAB202211EE0202B02D1E1
:1039A000CAB2012119E013B9CAB2012113E0082BF0
:1039B00003D1CAB24FF480710DE0072B02D1CAB215
:1039C000802108E0062B02D1CAB2402103E0052B7A
:1039D00007D1CAB220214FF09040BDE8084000F066
:1039E000BFBD194600F006F8BDE802400FF27000B6
:1039F00000F0C0BC0FF2540000F0BCBC80B590F9E0
:103A00000010132905D1BDE804400821064800F044
:103A1000A1BDFFF7EFFF0FF2540000F0ABFC002058
:103A200002BD0000000800480004004850696E4EC6
:103A3000616D652069732025642C50696E4D6F643B
:103A400065732069732025640A000000746865208E
:103A500070696E6E616D652069732025640A0000CF
:103A60006770696F2077726974650A006770696FA3
:103A700020726561640A00002DE9FE4F04468B4602
:103A80001546984602A8FFF707FE84F800B06420A8
:103A900010FB0BF79DF930909DF934A079487A4ED0
:103AA000BBF1000F22D1816841F480518160002375
:103AB000816821F4805181600122816A41F4805142
:103AC00081622946806A00F48050009000986F4817
:103AD0003060002000F064F800F068F800F054F85E
:103AE00000F064F8494604F12C002CE0016841F430
:103AF000804101600023016821F4804101600222BD
:103B0000016A41F4804101622946006A00F4804064
:103B1000009000985E48F051052000F041F800F058
:103B200038F800F031F800F034F8494604F12C0080
:103B3000FFF71EFF052001900023012000900222C4
:103B4000514604F14000FFF713FFF5191AF1010F78
:103B500006D14FF40070A86100230020009002E01D
:103B600001200090002300220821204600F025F8C3
:103B70004849204600F056F8284600F013FD02A8F8
:103B8000FFF78FFDBDE8F78F414604F11800FFF7FE
:103B9000EFBE052001900023022000900222704712
:103BA000019002200090201DFFF7E2BE002001904E
:103BB00000230220009001227047F0B50678324DB4
:103BC000642466432E440027B760067866432E447B
:103BD00008290CBF4FF4E0614FF47061F16000F010
:103BE0001DF80A61072200F019F84B6100F016F881
:103BF0000F6200F013F84F6200F010F88F6200F0CF
:103C00000DF8CA6200789DF914106043284419B970
:103C10004FF482714160F0BD4760F0BD01786143AF
:103C2000294470471C4B1B68002299423EBF521C1E
:103C30005B08072AF9D3510754BF002120219307BD
:103C400054BF00231023D20754BF00220822194377
:103C50000078114364230C4A58431044C1617047F3
:103C600002B582B000208DF8040001234FF0FF3030
:103C7000009001AA02A9094800F0FDFC9DF804008B
:103C80000EBD000038100240341200200030014008
:103C90000038004080969800000A00207C13002025
:103CA00000F0ECBE02484168027889184160704714
:103CB000F40900200901020002D42B488154704706
:103CC0002A4802F00F02104400F8041C70472849EB
:103CD0000A684FF6FF0300021A4000F4E060104348
:103CE000244A10430860704738B5214B1B68C3F362
:103CF0000223C3F10704052C28BF04241D1D072D32
:103D000034BF0023DB1E012505FA04F4641E2140A4
:103D1000994005FA03F35B1E1A401143BDE8344095
:103D2000C8E70000002807D4012100F01F029140DD
:103D3000114A400942F82010704710B5401EB0F1FA
:103D4000807F01D3012010BD0C4C60600F214FF02B
:103D5000FF30FFF7AFFF0020A060072020600020A9
:103D600010BD00F00DB8000000E400E018ED00E028
:103D70000CED00E00000FA0500E100E010E000E0DA
:103D80007047000000B500BF1300964694461039F6
:103D900028BFA0E80C50FAD85FEA417C28BF0CC0CD
:103DA00048BF40F8042BC90728BF20F8022B48BFA2
:103DB00000F8012B00BD000038B504460120002C9E
:103DC00038D094F8210020B984F82000204600F073
:103DD0007FFE00F030F801002CD12068DFF8582574
:103DE0008168114000F07FF8626823691A43A36973
:103DF0001A43114381602168E06808612068016905
:103E0000A26841EA0241016100F071F8010011D19C
:103E10002168CA6C92089200CA642168CA6CE3697E
:103E200065692B431A43CA64FF212268516201214C
:103E300084F8211032BD022084F82100CA202168B4
:103E4000486253202168486220462EE270B500F097
:103E5000BCF8164601D1022070BD012084F8200074
:103E6000FFF7E9FF010032D120688068002E0ED1F3
:103E700040065CBF0020E870287800F067FA06462C
:103E8000687800F063FA00F09BF830430AE04006DF
:103E90005CBF0020E87069782878090241EA004098
:103EA000A9780843E97840EA8150DFF89014084087
:103EB000216808602068816821F4802100F013F8EF
:103EC000EA682B691A431143816000F010F82268F8
:103ED000FF215162010004BF012184F8211000215B
:103EE00084F8201070BD816020688168704720468A
:103EF000FAE110B500680C46816A61600169C1F39E
:103F00000E01A1600068DFF834140840010C01F0D4
:103F10003F012170A070010A800D6170E0703AB914
:103F2000207800F01EFA00F005F800F072F8A0709A
:103F3000002010BD2070607813E270B500F045F8E5
:103F400001D1022070BD012084F82000022084F8F5
:103F5000210068786ABBC10603D500F0EF000A3083
:103F60006870E87800F0F2F90646687800F0EEF93B
:103F700000F026F83043297840EA41352168CA200C
:103F80004862532021684862204600F08EF9010003
:103F900006D12168DFF8A80328404860FFF7A7FF93
:103FA0002268FF215162010004BF012184F8211021
:103FB00095E7E978000240EA0140A9780843DAE78A
:103FC000000240EA0646A878C0E104460D4694F88F
:103FD00020000128704710B5006840680C46DFF8E3
:103FE00060130840010CE170A070010A01F01F018C
:103FF000400B617000F00700207042B9E07800F0DB
:10400000B0F9E070FFF797FF00F003F8A070002010
:1040100010BD6070A078A4E1816020684562012035
:1040200084F82100002084F8200070472DE9F8432F
:1040300000F0A0F808BF022057D000F0ABF813D171
:1040400040065CBF0020F870387800F07FF9054624
:10405000787800F07BF900F060F80546307800F0E1
:1040600075F900F044F805E040065CBF0020F870E8
:1040700000F045F800F09AF815D100F070F800F063
:10408000A9FD06462068C168C90705D400F0A2FD55
:10409000801B4845F6D314E000F04DF8FFF723FFEE
:1040A00041F4805116E000F04FF800F093FD064611
:1040B0002068C168890707D400F08CFD801B484543
:1040C000F6D300F05DF810E000F02CF8FFF70BFFDE
:1040D00041F4005181609B48016841F480210160F6
:1040E000816841F48021FFF797FFBDE8F283FA78F9
:1040F00045EA080141EA825141EA00607047797857
:104100003878090241EA0040B9780843F97840EA72
:104110008150317840EA01607047000240EA05486A
:10412000B87813E1C0F8208020688764206881682F
:1041300041F400717047C0F81C8020684764206813
:10414000816841F48071704721F4007181602068BA
:10415000C16801F0800161F42071C160704721F4F1
:10416000807181602068C16801F0800161F4C071D4
:10417000C160704704460F4694F82000012870473C
:1041800020684562032084F82100002084F8200084
:1041900003207047012084F8200007F12406022044
:1041A00084F82100002A206880687047396A084333
:1041B000796941EA00087868F96941EA00072168ED
:1041C000CA20486253202168486220687168FF2530
:1041D000B1F5807F816840F2E9397047F8B504464F
:1041E00094F82000012801D10220F2BD012084F8BA
:1041F0002000FF25022084F82100CA202268506296
:10420000532022685062B1F5807F2068816840F2B7
:10421000E9360FD121F48071816000F027F807465C
:104220002068C068C00717D400F0D4FCC01BB0429F
:10423000F6D30EE021F40071816000F010F807461B
:104240002068C068800707D400F0C4FCC01BB042DF
:10425000F6D3FFF795FFF2BDFFF7DFFEF2BD206852
:10426000816821F40051816000F0B4BC206881684D
:1042700021F48051816000F0ADBC38B5044620685F
:10428000C16821F0A001C16000F0A4FC05462068CF
:10429000C068800607D400F09DFC401BB0F57A7F13
:1042A000F5D9032032BD002032BD70B5044600258B
:1042B0002068C168490615D44FF0FF31C16000F095
:1042C00089FC064608E000F085FC801BB0F57A7F8B
:1042D00084BF032584F821502068C068400601D4BB
:1042E000032DF0D1284670BD70B5174E0446706896
:1042F00020F08000706000253068800608D42046D9
:10430000FFF7BBFFA0B1032084F8210003250FE0D5
:10431000306820F0200030602046FFF7AEFF18B173
:10432000032084F821000325306840F0200030602D
:10433000284670BD00000000BFFF8FFF7F7F7F0019
:104340003FFFFF000004014008280040002101E079
:10435000491C0A38C2B20A2AFAD240EA0110C0B295
:10436000704701090A2200F00F0012FB0100C0B2E1
:10437000704700000EB400B582B003A90091024658
:104380006B460121034878440A30FBF7FDFE06BC6A
:104390005DF810FBD92100002DE9F84F0026774A7F
:1043A000774BDFF8E0814FF00F092EE0BD402C4342
:1043B00043F82C406FEA0A05146805EA040E4C68BD
:1043C000E40348BF4AEA0E0EC2F800E0546805EA6A
:1043D000040E4C68A40348BF4AEA0E0EC2F804E07B
:1043E000946805EA040E4C68E40248BF4AEA0E0EDF
:1043F000C2F808E0D46805EA040C4C68A40248BF7F
:104400004AEA0C0CC2F80CC0761C0D6835FA06F4AA
:1044100000F09E80012707FA06F414EA050AF3D09B
:104420004FEA460C032505FA0CF56FEA050E4D68B8
:10443000E443012D18BF022D03D0112D18BF122DFA
:104440000FD18568CF680EEA050507FA0CF73D43E2
:10445000856045684F68C7F300172540B7403D4366
:1044600045604D6805F00307032F06D1C76AC5F301
:10447000C0053C40B5402C43C462C4688D680EEA58
:10448000040405FA0CF52C43C460B4004D68022DF9
:1044900018BF122D15D1F50800EB850504F01C0B93
:1044A0002F6A09FA0BFB27EA0B07009704F01C0799
:1044B000D1F810B00BFA07F7DDF800B047EA0B07A8
:1044C0002F6205680EEA05070D7905F0030505FA68
:1044D0000CF53D4305604D68ED0095D5D8F80050CA
:1044E00045F00105C8F800504FEA960CD8F8005086
:1044F00005F00105009504F00C07009D53F82C50C1
:1045000009FA07F425EA0404B0F1904F08BF00252A
:104510001DD01D4DA84208BF012518D01B4DA84233
:1045200008BF022513D01A4DA84208BF03250ED09C
:10453000184DA84208BF042509D0174DA84208BF4E
:10454000052504D0154DA8420CBF062507252DE7EB
:10455000BDE8F18F0069084018BF0120C0B2704764
:104560000AB181617047816270470D4A1368034246
:104570001CBF106000F03EBB70470000000401400B
:104580000800014060100240000400480008004894
:10459000000C0048001000480014004800180048B3
:1045A0001404014038B5040001D1012032BD606A15
:1045B00028B900F0CAF905D00020E06102E000202F
:1045C000206160610020A06204F15C05687818B980
:1045D0002870204600F091FA0220687000F03EFA40
:1045E000E168B1F5E06F04D90020B1F5706F03D137
:1045F00004E04FF4805001D00021A1626168A268FC
:1046000001F4827102F404421143227C02F002029E
:104610001143227D02F001021143A26902F40072EB
:104620001143227F02F03802114394F8202002F057
:1046300080021143A26A02F4005211432268116001
:10464000A16994F82420090C01F0040102F0100281
:10465000114394F8342002F008021143E26802F496
:10466000706211430843216848600020686001209F
:104670006870002032BD2DE9F84F044604F144066D
:104680000025307E0128884691461F464FF0010BD9
:1046900008BF022000F0FE8086F818B000F09AFAF9
:1046A000727E012A824609D06368B3F5827F02BF19
:1046B000A368002B042A01D00225E6E0B8F1000F20
:1046C00018BFB9F1000F00D00FB90125DDE0727EEF
:1046D000042A1CBF05227276F561C4F840907780E9
:1046E0003780C4F83880E787A787B560F56040F267
:1046F0000172E368934238BF022F04D321684B68EC
:1047000023F4805303E021684B6843F480534B60EB
:1047100021680B685B0603D40B6843F040030B6011
:10472000E3686168DDF8288093423ED3002918BF12
:10473000012F05D1A06B216800F0B4F8401EE0877E
:10474000E08F002804BF7088002845D02068816869
:1047500089070FD5E18F002918BFBBF1000F09D0E1
:10476000A16B0988C160AB46A06B801CA063E08F81
:10477000401EE08720688168C9070CD5718851B157
:10478000C068216C08804FF0010B206C801C2064F5
:104790007088401E708000F01DFAA0EB0A004045B2
:1047A000CED318F1010FCBD065E0002918BF012F3F
:1047B0000DD1A06B2168E28F022A03D300F072F8BA
:1047C000801E03E00078087300F066F8E087E08F51
:1047D000002804BF708800284FD0206881688907AE
:1047E00017D5E18F002918BFBBF1000F11D0A16BC5
:1047F000E28F022A07D30988C160A06B801CA063E6
:10480000E08F801E03E00978017300F045F8E0872F
:10481000AB4620688168C90720D57188F1B1216C49
:104820007288022A10D3C0680880206C801C206423
:104830007088801E7080708802280DD220684168C0
:1048400041F48051416007E0007B0870206C401CFF
:1048500020647088401E70804FF0010B00F0BAF9A0
:10486000A0EB0A00404503D318F1010FAFD002E0DE
:10487000B8F1000FABD1032507E05246414600F0E6
:104880001BF810B120200125F06101207076002076
:1048900030762846BDE8F28FA06B401CA063E08F05
:1048A000401E70470088C860A06B801CA063E08F2A
:1048B00070474A60642102462046B1E02DE9F84382
:1048C00004460D4691461F4600F084F90899381AAF
:1048D0000E1800F07FF900F02EF84001000D704333
:1048E00004E0009800B900260098401E009020685F
:1048F00080682840A8420CBF01200020484517D0FE
:1049000017F1010FF3D000F065F9A0EB0800B042F9
:1049100001D2002EE5D100F013F806D100F059F8CD
:1049200018BFB0F5806F00F058F800F05DF800E0B7
:104930000020BDE8F2838046DFF83C010068704744
:104940002068416821F0E00141606068B0F5827F35
:1049500070472DE9F84304460D461646994600F087
:1049600039F90899A9EB00000F1800F033F9FFF7A7
:10497000E2FF23214843000D784304E0009800B98A
:1049800000270098401E0090206881682940B142AD
:104990001CD0B5F5C06F04BF002E007B19F1010FCC
:1049A000F2D000F017F9A0EB0800B84201D2002FB6
:1049B000E4D1FFF7C5FF06D100F00BF818BFB0F542
:1049C000806F00F00AF800F00FF800E00020BDE86A
:1049D000F283A068B0F5004F704704D120680168E9
:1049E00021F0400101607047A06AB0F5005F09D175
:1049F0002068016821F4005101602068016841F4D9
:104A00000051016004F15C0001214170002101703E
:104A10000320704700962B460022802120464DE758
:104A200070B582B00D461646044600962B4600220D
:104A30004FF4C051FFF78DFF38B9FFF7EBFF20B9F6
:104A400000962B4600F012F808B100F001F876BD90
:104A5000206E40F020002066032070472068016827
:104A600021F04001016070470090642300224FF460
:104A7000C06120466DE70000000A002038B50446FA
:104A800000F0A8F814F1010F054602D004480078A0
:104A9000241800F09FF8401BA042FAD331BD00BF9C
:104AA000F4090020454881B0816841F0010181602E
:104AB000816801F0010100910099016841F0805185
:104AC0000160006800F080500090009801B07047CD
:104AD00080B500683A4988420ED13A48016841F4ED
:104AE00000410160002201212920FFF7FDF8BDE807
:104AF00002402920FFF716B901BD10B586B000F0BD
:104B000041F820683049884217D13048416941F462
:104B100080514161416901F4805100F041F8E02089
:104B200001900220029000200390032004900520B1
:104B300005904FF09040FFF72FFC06B010BD10B568
:104B400086B000F01FF820682149884218D11F481C
:104B5000C16841F40031C160C16801F4003100F066
:104B60001FF80420019002200290002000F00FF8AE
:104B70000820019001A902200290012000F007F80E
:104B800006B010BD044601A81421FEF795BD0390A0
:104B900003200490072005904FF09040FFF7FCBBE6
:104BA00000910099016841F00101016001A90068CC
:104BB00000F001000090009870470000581002407B
:104BC0000028004090100240003001404C1002408C
:104BD0000044004001484068704700BFF4090020CD
:104BE00001B54FF47A7301226946B54800F0CFF958
:104BF000009802BD0FF20C30FFF7BCBB80B500F08F
:104C000009FC00F03FF800F0ECF8AE48AE49016056
:104C10004FF482714160002181604FF4E061C16016
:104C200000210161012141614FF400718161302156
:104C3000C16100210162416281620721C1620021DC
:104C400001634163FFF7AEFC00F066F89C489F49A2
:104C500001604FF4E131416000218160C160016178
:104C60000C21416100218161C1610162416200F05A
:104C70004FF900F051F800F053F800F0E1FB00F0BC
:104C80003DFCFCE700B5B9B005A84421FEF714FDD2
:104C9000684600F0A3F816A88821FEF70DFD0A204B
:104CA00005904FF4807008901020099001200A9020
:104CB00002200F901090012011900A2012900720DE
:104CC000139002201490159005A800F0AFFC00F09E
:104CD00023F80F200090042103200190002002906F
:104CE00003900490684600F0E2FE00F015F84FF0E3
:104CF00002101690002025904FF40070379016A8EF
:104D000001F014F800F008F84FF4007001F0B2FA66
:104D100000F002F839B000BD08B172B6FEE7704786
:104D200010B592B000F059F80FF2E010684C00682E
:104D300000902C2106A8FEF7BFFC664820600020EA
:104D400060601F20A06040F2FF30E0600020206122
:104D50006061A061E0612046FFF72EF8FFF7DCFFFD
:104D60008DF804008DF805008DF80600049005907C
:104D7000002201A92046FFF769F8FFF7CDFF0120C7
:104D80008DF800008DF801008DF80200002200204F
:104D90008DF8030069462046FFF7CFF8FFF7BCFF08
:104DA0008DF818008DF819008DF81A000790002171
:104DB00007A88160C16001618161C16101208DF836
:104DC0003C0000224FF48070109006A92046FFF7A7
:104DD0002DF9FFF7A1FF12B010BD01A81421FEF7B5
:104DE0006BBC10B586B0FFF7F8FF3B483B4C016841
:104DF00041F0040101600022016801F0040100910A
:104E00000099016841F001010160016801F00101B0
:104E100000910099016841F00201016003210068DE
:104E200000F00200009000982046FFF799FB002256
:104E300040F201214FF09040FFF792FB01224FF426
:104E400080714FF09040FFF78BFB4FF400500190C2
:104E500001A923480290002000F048F8032000F048
:104E600049F800F044F840F2013000F043F84FF008
:104E70009040FFF791FA0820019000200290012055
:104E8000039001A9174C00F032F81020019001A9FD
:104E900015480290012000F029F8002200210A2084
:104EA000FEF722FF0A20FEF73DFF00220021282006
:104EB000FEF71AFF2820FEF735FF06B010BD0000F0
:104EC000FC1200207C130020003001400044004010
:104ED000A0140020002800404C10024000080048A8
:104EE000000021100004004800001110039020462B
:104EF000FFF752BA019001A901200290002003900F
:104F0000049070474952510A000000000000000060
:104F100038B5040009D004F17005686808B900F0DC
:104F20000FF800F020F8012801D1012032BD606A9D
:104F300008B100F029F800F00EF821F02A0103E092
:104F400028702046FFF7FBBD816000F016F8BDE831
:104F5000324000F0F3B92068416821F4904141608B
:104F600020688168704724206860206801684908CB
:104F700049000160204600F065B82068016841F0F2
:104F80000101016020467047204600F074B92DE908
:104F9000F047044604F1700682B070682028894604
:104FA0001746984647D1B9F1000F14BF002F0120D2
:104FB00042D0307801283ED00120307004F15005F5
:104FC0000020F06021207060FFF704FE2F808246F1
:104FD0006F80A068B0F5805F04BF206900280EBF15
:104FE00000274F464FF000090020307003E0018594
:104FF0006888401E688053466888CDF80080002885
:105000000ED00022802100F019F870B92068002F1E
:1050100006BF39F8021BC1F3080117F8011BE6E7C8
:105020000022402100F00AF808B1032004E020200B
:105030007060002000E00220BDE8F687204600F006
:10504000A8B90000F8B504467E4A21687E4F08687A
:105050007E4E1040A26810432269104362691043DB
:10506000E2691043086000254868E26820F4405077
:1050700010434860724AA06991421CBF236A1843DA
:105080008B6823F4306318438860B94270484FF44A
:1050900000432FD1366806F00306032E37D8DFE829
:1050A00006F0026B5C7D0127E169B1F5004F4FF618
:1050B000F07640F0A1805FB1012F00F09580022FC3
:1050C0000BD0042F00F09380082F00F09380B1E004
:1050D00000F0BBFD002800F0AE8061684A0802EBDA
:1050E000400000F0C1F8F2D206EA0001C0F342002D
:1050F000084394E0574FB94221D1366816F00C06A8
:105100005DD0042E38D0082E27D00C2E46D0102784
:105110009142C9D137B1022F08D0042F51D0082FA6
:1051200052D087E000F091FD00287AD0626802EB4F
:105130004201884202D31103814247D27AE0464FAE
:10514000B9420CD1366816F0300638D0102E13D084
:10515000202E02D0302E21D0D9E70227D8E73F4FAA
:10516000B9420BD1366816F0C00628D0402E03D0C5
:10517000802EF2D0C02EEEE70427C9E7384FB9429F
:105180000ED1366816F4407619D0B6F5807FF3D08C
:10519000B6F5007FE1D0B6F5407FB8D10827B7E774
:1051A0009142B4D1366816F4406608D0B6F5806FE7
:1051B000E2D0B6F5006FD0D0B6F5406FCBE7002750
:1051C000A6E700F0FAFCAFE71846AFE7010E560875
:1051D00016EB002069410023FCF7F0F9A0F54071BF
:1051E000204A914226D21AE000F037FD72E700F023
:1051F000E4FC6FE7184670E747B1012F12D0022F89
:1052000007D0042F11D0082F12D013E000F01DFD9D
:1052100088B1616800EB510000F026F80AD22168DD
:10522000C86008E000F019FDF2E700F0C6FCEFE707
:105230001846EEE701250020206660662846F2BD8C
:1052400000800040F369FFEF003801408810024001
:105250000024F4000044004000480040004C00409E
:105260000050004000FD0F00B0FBF1F080B2A0F153
:105270001001B142704790F82410C90706D50168A3
:105280004A68836A22F400321A434A6090F8241074
:10529000890706D501684A68C36A22F480321A4336
:1052A0004A6090F82410490706D501684A68036BE4
:1052B00022F480221A434A6090F82410090706D588
:1052C00001684A68436B22F400421A434A6090F82E
:1052D0002410C90606D501688A68836B22F48052BF
:1052E0001A438A6090F82410890606D501688A68F6
:1052F000C36B22F400521A438A6090F824104906C6
:1053000010D501684A68036C22F480121A434A607F
:10531000026CB2F5801F05D14A68436C22F4C002CA
:105320001A434A6090F82410090606D501684A68B5
:10533000806C22F40022104348607047F8B50446A0
:1053400004F170050020E8606FF07E47FFF742FC33
:10535000064620680068000707D5009733460022FC
:105360004FF40011FFF76AFE58B920680068400743
:1053700009D50097334600224FF48001FFF75EFE07
:1053800008B10320F2BD20206860A86000202870CA
:10539000F2BD2DE9F041069E04460D4690461F469B
:1053A0002068C0692840A8420CBF01200020404569
:1053B0001CD116F1010FF3D0FFF70CFCC01B864285
:1053C00000D316B900F015F80CE020680168490711
:1053D000E6D5C1690905E3D54FF40061016200F02B
:1053E00008F8C16000210170032000E00020BDE842
:1053F000F0812068016821F4D07101602068816823
:1054000049084900816004F17000202141608160F9
:1054100070470000094810B5016841F480710160CF
:105420000320FEF754FC002000F05CFF002400285D
:1054300014BF0124FFF736FB204610BD00200240B8
:1054400070B58AB000F054F82121DFF85401DFF87C
:105450004C41FEF78DFA00F04BF82021DFF84401B3
:10546000FEF786FA4FF0FF300190062305200090EA
:1054700007220021DFF83001FEF7FEFAFDF76CFF8E
:105480002168DFF828018847E168DFF824018847B0
:1054900040F6B83008904CF2503500200790069046
:1054A0000590012004900020039005200290002028
:1054B000019000950023E66946F2A8120E21B0473C
:1054C000012009902A46002008900790069029465E
:1054D00001200590002000F054F8A56900900020FC
:1054E000A847626D0AB0BDE8704040210020104717
:1054F00000200190009000230122704770B5C2B0D7
:10550000FDF780FC00218DF800104FF4FA74FDF7D0
:105510001BFE22490FF2A005496B00208847FDF7CA
:1055200071FC064631462846FEF724FFB0071DD51C
:105530000FF2A000FEF71EFFFF22694601A8FDF74B
:10554000BDFA9DF800100FF2AC00FEF713FF002427
:1055500010A505E001A8015D2846FEF70BFF641CBD
:105560009DF800008442F5DB0BA006E00A20FFF75F
:1055700085FA641ED3D10FF2A000FEF7FBFE42B005
:1055800070BD04900390029005200190002309480B
:1055900070470000256320000A000000B86300087F
:1055A0000400002018000020A41100207C08002026
:1055B00080A1031C85450100746865204972712033
:1055C0007374617475732069732030782530347872
:1055D0000A00000072656365697665207061636B1F
:1055E0006574207375636365737366756C6C790A93
:1055F00000000000746865206C656E677468206F39
:105600006620726563656976652062756666657297
:105610002069732025640A007265636569766520D8
:1056200074696D656F75740A000000002DE9F0471C
:10563000040082B076D0DFF8B456DFF8BC76A868F4
:1056400000F00C08E86800F003092078C00657D580
:10565000B8F1000F05D0B8F10C0F08BFB9F1010F78
:105660003AD12868800702D5A06900285AD0286856
:1056700000074EBF28687868000900F0F001206A32
:10568000814206D200F0F5FA00284BD100F0FAF979
:1056900018E0286840F0080028602868216A20F097
:1056A000F00008432860B8F1000F6868E16920F451
:1056B0007F4040EA0120686004D1206A00F0D9FAF6
:1056C00000282FD100F079FAAA6800F06DFA00F0F6
:1056D000D3F9010014D0CDE1A0690028286823D0B7
:1056E00040F0010000F0E0F906462868800705D484
:1056F000FFF770FA801B0328F7D3B8E100F0C2F976
:105700002078C0074ED5B8F1080F05D0B8F10C0FBE
:1057100008BFB9F1030F15D12868800342D560682E
:1057200000283FD10120A5E14008400000F0BCF96D
:10573000064628688007E3D5FFF74CFA801B03284C
:10574000F7D394E16068B0F5803F06D0B0F5A02FA4
:10575000286806D140F480202860286840F4803012
:1057600005E020F480302860286820F4802028603C
:10577000606858B1FFF72EFA06462868800311D4F6
:10578000FFF728FA801B6528F7D370E1FFF722FAAC
:1057900006462868800305D5FFF71CFA801B65289C
:1057A000F7D364E12078800715D5B8F1040F05D050
:1057B000B8F10C0F08BFB9F1020F22D128684005DB
:1057C00002D5E0680028ADD06868216920F0F85063
:1057D00040EA016068602078000741D560690028D0
:1057E00078682ED040F001007860FFF7F3F90646A4
:1057F0007868800734D4FFF7EDF9801B0328F7D3CE
:1058000035E1E068002828680DD040F4807000F091
:105810004BF9064628684005D6D4FFF7DBF9801B14
:105820000328F7D323E120F4807000F03DF9064609
:1058300028684005CFD5FFF7CDF9801B0328F7D3A3
:1058400015E1400840007860FFF7C4F90646786823
:10585000800705D5FFF7BEF9801B0328F7D306E1C3
:10586000207840075FD5A86DC0004FF000090AD42A
:10587000A86D40F08050A8654FF00109A86D00F0B8
:10588000805000900098DFF874A4DAF80000C0059A
:1058900012D4DAF8000040F48070CAF80000FFF774
:1058A00099F90646DAF80000C00505D4FFF792F929
:1058B000801B0328F6D3DAE0A068012805D005286C
:1058C000386806D140F004003860386840F00100C4
:1058D00005E0400840003860386820F00400386077
:1058E00041F2893AA06858B1FFF774F90646386862
:1058F000800711D4FFF76EF9801B5045F7D3B6E04F
:10590000FFF768F906463868800705D5FFF762F9A2
:10591000801B5045F7D3AAE0B9F1000F03D0A86D62
:1059200020F08050A865A06A002800F0A28002281C
:1059300040F07D80E868E26A00F00301914201BF17
:1059400000F07001226B521EB1EB021F20D1626B7E
:1059500000F4FE41B1EB022F1AD1A16B07290CBF55
:105960000021012100F400328A4211D1E26B921E23
:10597000120500F4C001520DB1EB425F08D1216C59
:10598000891E090600F0C06001F07E41884237D0D0
:10599000B8F10C0F4DD02868400101D42868C00030
:1059A0003FF5C0AE286820F0807000F07DF8064614
:1059B0002868800105D5FFF70DF9801B0328F7D370
:1059C00055E0E868DFF838130840E16A0843216BC6
:1059D000491E40EA0110616B40EA0120E16B891E1B
:1059E0000905490D40EA4150216C891E090601F064
:1059F0007E410843A16B090940EA4140E86002E0AA
:105A00002868800135D4286840F080702860E868F4
:105A100040F08070E860FFF7DDF8064628688001F6
:105A200027D4FFF7D7F8801B0328F7D31FE0B8F17E
:105A30000C0F3FF477AE286820F08070286028684B
:105A400010F0205F03D1E86880088000E860E86813
:105A5000DFF8B0120840E860FFF7BCF80646286897
:105A6000800106D5FFF7B6F8801B0328F7D3032083
:105A700000E00020BDE8F6870860DFF88C020068CF
:105A800000F030BC286840F0080028602868216ACF
:105A900020F0F000084328606868E16920F47F4046
:105AA00040EA0120686070472860FFF793B82DE94D
:105AB000F041040088464AD0DFF85062306800F0B8
:105AC0000700404502D200F065F840D12078DFF8A9
:105AD0001C72C0072AD56068032802D13968890181
